:100000000C942A000C9447000C9447000C94470071
:100010000C9447000C9447000C9447000C94470044
:100020000C9447000C9447000C9447000C94470034
:100030000C9447000C9447000C9447000C94470024
:100040000C9447000C9447000C9447000C94470014
:100050000C94470011241FBECFE5D8E0DEBFCDBF12
:1000600011E0A0E6B0E0E2E0FBE302C005900D92F3
:10007000AC33B107D9F711E0ACE3B1E001C01D9298
:10008000AF35B107E1F70E949E120C947F1D0C94CE
:100090000000EF92FF920F931F937B018C0120E0F1
:1000A00030E040E05FE40E94490388238CF0C801FF
:1000B000B70120E030E040E05FE40E94C1010E940F
:1000C000A9039B01AC01205030404040504806C07D
:1000D000C801B7010E94A9039B01AC01B901CA0183
:1000E0001F910F91FF90EF900895A0E0B0E0EBE733
:1000F000F0E00C94481DDC012B01FA019C91923038
:1001000008F439C1EB018881823008F433C194309E
:1001100069F4843009F02FC111969C91119789815F
:10012000981709F428C1A7E2B1E025C1843009F489
:1001300021C18230A9F4923009F01DC19A01AD01AC
:1001400088E0EA010990AE01E90109929E0181501F
:10015000C1F7E201898111969C918923818308C1AD
:10016000923009F407C112962D903C901397EB0141
:100170008A819B811496AD90BD90CD90DC901797AD
:10018000EC80FD800E811F819101281B390BB90184
:1001900037FF04C066277727621B730B6032710537
:1001A0000CF061C0121613066CF537014801062EDB
:1001B00004C096948794779467940A94D2F721E0C8
:1001C00030E040E050E004C0220F331F441F551FB1
:1001D0006A95D2F721503040404050402E213F21B7
:1001E00040235123211531054105510521F021E01E
:1001F00030E040E050E079018A01E628F72808293C
:1002000019293CC0232BD1F1260E371E350146019A
:10021000062E04C096948794779467940A94D2F734
:1002200021E030E040E050E004C0220F331F441FC3
:10023000551F6A95D2F721503040404050402A2146
:100240003B214C215D21211531054105510521F04E
:1002500021E030E040E050E059016A01A628B728CB
:10026000C828D9280BC0821593052CF01C01AA249C
:10027000BB24650103C0EE24FF24870111969C91E5
:10028000D20111968C91981709F445C0992339F041
:10029000A80197012A193B094C095D0906C0A6016E
:1002A00095012E193F09400B510B57FD08C01182D3
:1002B0003382228224833583468357831DC081E0A5
:1002C00081833382228288279927DC01821B930B4A
:1002D000A40BB50B84839583A683B7830DC0220F2F
:1002E000331F441F551F24833583468357838281E0
:1002F000938101979383828324813581468157813D
:10030000DA01C9010197A109B1098F5F9F4FAF4F72
:10031000BF4328F30BC0918333822282EA0CFB1C7B
:100320000C1D1D1DE482F5820683178383E0808304
:10033000248135814681578157FF1AC0C901AA27F8
:1003400097FDA095BA2F81709070A070B0705695EF
:10035000479537952795822B932BA42BB52B848318
:100360009583A683B7838281938101969383828349
:10037000DF0101C0D201CD01CDB7DEB7E2E10C94BF
:10038000641DA0E2B0E0E7ECF1E00C94541D698339
:100390007A838B839C832D833E834F835887E9E048
:1003A000EE2EF12CEC0EFD1ECE010196B7010E943F
:1003B000D2048E010F5E1F4FCE010596B8010E9438
:1003C000D2048A8991E089278A8BC701B801AE01DE
:1003D000475E5F4F0E9475000E94FD03A096E6E015
:1003E0000C94701DA0E2B0E0E8EFF1E00C94541D15
:1003F00069837A838B839C832D833E834F835887C5
:10040000F9E0EF2EF12CEC0EFD1ECE010196B701A6
:100410000E94D2048E010F5E1F4FCE010596B801D7
:100420000E94D204C701B801AE01475E5F4F0E942F
:1004300075000E94FD03A096E6E00C94701DA0E2FA
:10044000B0E0E5E2F2E00C94481D69837A838B8387
:100450009C832D833E834F835887CE010196BE0136
:10046000675F7F4F0E94D204CE010596BE016F5E8A
:100470007F4F0E94D2049985923088F0898982301A
:10048000C8F0943019F4823051F404C0843029F457
:10049000923081F487E291E0C6C0923049F420E0C6
:1004A0009A858A89981321E02A87CE010996BBC0D4
:1004B000823049F420E09A858A89981321E02A8BBA
:1004C000CE014196B0C02D843E844F8458886D88FB
:1004D0007E888F88988CEE24FF248701AA24BB2471
:1004E000650140E050E060E070E0E0E0F0E0C10174
:1004F00081709070892BE9F0E60CF71C081D191D1E
:100500009A01AB012A0D3B1D4C1D5D1D80E090E062
:10051000A0E0B0E0E614F7040805190520F481E036
:1005200090E0A0E0B0E0BA01A901480F591F6A1F8E
:100530007B1FAA0CBB1CCC1CDD1C97FE08C081E0F5
:1005400090E0A0E0B0E0A82AB92ACA2ADB2A3196B6
:10055000E032F10549F0660C771C881C991C569412
:10056000479437942794C3CFFA85EA892B893C892D
:100570008B859C85280F391F2E5F3F4F17C0CA01FE
:1005800081709070892B61F016950795F794E79428
:1005900080E090E0A0E0B0E8E82AF92A0A2B1B2BC3
:1005A00076956795579547952F5F3F4F77FDE7CF36
:1005B0000CC0440F551F661F771F17FD4160EE0CDE
:1005C000FF1C001F111F21503040403090E05907A0
:1005D00090E0690790E4790760F32B8F3C8FDB0193
:1005E000CA018F779070A070B07080349105A1051A
:1005F000B10561F447FD0AC0E114F10401051105DC
:1006000029F0405C5F4F6F4F7F4F40781A8EFE1786
:1006100011F081E08A8F4D8F5E8F6F8F78A383E01A
:10062000898FCE0149960E94FD03A096E2E10C94C9
:10063000641DA8E1B0E0EFE1F3E00C94541D698380
:100640007A838B839C832D833E834F83588789E0F5
:10065000E82EF12CEC0EFD1ECE010196B7010E9492
:10066000D2048E010F5E1F4FCE010596B8010E9485
:10067000D2048985823040F08989823028F0C70110
:10068000B8010E944A0501C08FEF6896E6E00C941D
:10069000701DA8E1B0E0EFE4F3E00C94541D698311
:1006A0007A838B839C832D833E834F83588789E095
:1006B000E82EF12CEC0EFD1ECE010196B7010E9432
:1006C000D2048E010F5E1F4FCE010596B8010E9425
:1006D000D2048985823040F08989823028F0C701B0
:1006E000B8010E944A0501C08FEF6896E6E00C94BD
:1006F000701DA8E1B0E0EFE7F3E00C94541D6983AE
:100700007A838B839C832D833E834F83588789E034
:10071000E82EF12CEC0EFD1ECE010196B7010E94D1
:10072000D2048E010F5E1F4FCE010596B8010E94C4
:10073000D2048985823040F08989823028F0C7014F
:10074000B8010E944A0501C081E06896E6E00C9479
:10075000701DACE0B0E0EFEAF3E00C94581D698343
:100760007A838B839C83CE010196BE016B5F7F4FA2
:100770000E94D2048D81823061F1823050F1843048
:1007800021F48E81882351F12EC02F81388537FDC9
:1007900020C06E812F3131051CF06623F9F023C093
:1007A0008EE190E0821B930B29853A854B855C8511
:1007B00004C056954795379527958A95D2F76623B5
:1007C000B1F050954095309521953F4F4F4F5F4F79
:1007D0000EC020E030E040E050E009C02FEF3FEFD6
:1007E0004FEF5FE704C020E030E040E050E8B9019F
:1007F000CA012C96E2E00C94741DDF92EF92FF92F6
:100800000F931F93FC01E480F58006811781D1804E
:100810008081823048F480E090E0A0E1B0E0E82AF6
:10082000F92A0A2B1B2BA5C0843009F49FC0823003
:1008300021F4EE24FF24870105C0E114F104010531
:10084000110519F4E0E0F0E096C0628173819FEF3A
:10085000623879070CF05BC022E83FEF261B370BAC
:100860002A3131052CF020E030E040E050E02AC091
:10087000B801A701022E04C0769567955795479554
:100880000A94D2F781E090E0A0E0B0E004C0880FC5
:10089000991FAA1FBB1F2A95D2F70197A109B10979
:1008A0008E219F21A023B1230097A105B10521F03E
:1008B00081E090E0A0E0B0E09A01AB01282B392B59
:1008C0004A2B5B2BDA01C9018F779070A070B07052
:1008D00080349105A105B10539F427FF09C0205CDA
:1008E0003F4F4F4F5F4F04C0215C3F4F4F4F5F4F13
:1008F000E0E0F0E02030A0E03A07A0E04A07A0E402
:100900005A0710F0E1E0F0E079018A0127C0603871
:10091000710564F5FB01E158FF4FD801C7018F77DE
:100920009070A070B07080349105A105B10539F4C4
:10093000E7FE0DC080E490E0A0E0B0E004C08FE3EB
:1009400090E0A0E0B0E0E80EF91E0A1F1B1F17FFA1
:1009500005C016950795F794E794319687E01695AC
:100960000795F794E7948A95D1F705C0EE24FF2404
:100970008701EFEFF0E06E2F679566276795902F60
:100980009F77D794DD24D7948E2F8695492F462BB9
:10099000582F5D29B701CA011F910F91FF90EF9069
:1009A000DF900895FC01DB01408151812281622F9B
:1009B0006F7770E0221F2227221F9381892F880FD3
:1009C000822B282F30E0991F9927991F11969C930D
:1009D000119721153105A9F54115510561057105DD
:1009E00011F482E037C082E89FEF13969C938E93B8
:1009F00012979A01AB0167E0220F331F441F551F66
:100A00006A95D1F783E08C930DC0220F331F441FEA
:100A1000551F12968D919C911397019713969C9355
:100A20008E931297203080E0380780E0480780E4FA
:100A3000580758F314962D933D934D935C93179755
:100A400008952F3F310579F4411551056105710570
:100A500019F484E08C93089564FF03C081E08C93C3
:100A600012C01C9210C02F57304013963C932E9307
:100A7000129783E08C9387E0440F551F661F771F02
:100A80008A95D1F7706414964D935D936D937C9322
:100A9000179708951F93DC01FB019C91923008F495
:100AA00047C08081823008F443C0943051F41196DD
:100AB0001C91843099F58181682F70E0611B710968
:100AC0003FC0843021F0923031F48230B9F181811D
:100AD000882389F12DC011961C9111978230F1F075
:100AE00081811817D9F412962D913C911397828128
:100AF00093818217930794F028173907BCF0149656
:100B00008D919D910D90BC91A02D248135814681C0
:100B10005781281739074A075B0718F4112341F05A
:100B20000AC082179307A407B50740F4112319F0F0
:100B300061E070E005C06FEF7FEF02C060E070E041
:100B4000CB011F910895DF93CF93CDB7DEB7EAE2D3
:100B5000F0E088E18083E0E4F0E086E8808363E30E
:100B600070E080E090E00E94DE05CF91DF91089573
:100B7000DF93CF930F92CDB7DEB78983EBE2F0E03E
:100B80008081882F90E0807290700097B9F3ECE23A
:100B9000F0E0898180830F90CF91DF910895DF93FA
:100BA000CF93CDB7DEB7EBE2F0E080818823DCF7AE
:100BB000ECE2F0E08081CF91DF910895DF93CF9355
:100BC00000D000D0CDB7DEB769837A838B839C8356
:100BD000E9E2F0E0898180830F900F900F900F90F1
:100BE000CF91DF910895DF93CF9300D0CDB7DEB7DB
:100BF0009A8389830AC0E981FA8180810E94B805BD
:100C000089819A8101969A838983E981FA81808119
:100C1000882389F70F900F90CF91DF9108950F935C
:100C20001F93DF93CF9300D000D0CDB7DEB79B8367
:100C30008A836C8319822FC08981282F30E08A81B2
:100C40009B818C01020F131F0E94CF05F801808346
:100C50008981282F30E08A819B81FC01E20FF31FFC
:100C600080818A3059F08981282F30E08A819B81E8
:100C7000FC01E20FF31F80818D3051F48981282F10
:100C800030E08A819B81FC01E20FF31F108207C0D4
:100C900089818F5F898399818C81981768F28C8113
:100CA000282F30E08A819B81FC01E20FF31F108224
:100CB0000F900F900F900F90CF91DF911F910F9198
:100CC0000895DF93CF93CDB7DEB728970FB6F8948A
:100CD000DEBF0FBECDBF9C838B834D835E836F834E
:100CE00078871A820E94CF0589838A81282F30E075
:100CF0008B819C81FC01E20FF31F898180838A81B3
:100D00008F5F8A838981882389F08A81282F30E048
:100D100040E050E08D819E81AF81B8850197A109A7
:100D2000B109281739074A075B07E0F28A81282FA3
:100D300030E08B819C81FC01E20FF31F108228962A
:100D40000FB6F894DEBF0FBECDBFCF91DF910895EF
:100D50000F931F93DF93CF9300D00F92CDB7DEB7E1
:100D60009B838A83198214C08981282F30E08A816D
:100D70009B818C01020F131F0E94CF05F801808315
:100D800089818F5F898382E0698141E00E9438090F
:100D9000EBE2F0E08081882F90E080729070009705
:100DA00019F38981282F30E08A819B818C01020F01
:100DB000131F0E94CF05F80180830F900F900F90B2
:100DC000CF91DF911F910F910895DF93CF93CDB70E
:100DD000DEB72A970FB6F894DEBF0FBECDBF6F8384
:100DE000788789879A8719822DC08F819885A985F0
:100DF000BA858B839C83AD83BE838981282F30E0A5
:100E000083E090E0821B930B9C01220F331F220F83
:100E1000331F220F331F8B819C81AD81BE8104C0A3
:100E2000B695A795979587952A95D2F78B839C833E
:100E3000AD83BE838B818A838A810E94B8058981B4
:100E40008F5F89838981843080F22A960FB6F89467
:100E5000DEBF0FBECDBFCF91DF910895DF93CF935B
:100E6000CDB7DEB72A970FB6F894DEBF0FBECDBF61
:100E70001F82188619861A8619823CC00E94CF05E7
:100E80008E838E81882F90E0A0E0B0E08A839B83E0
:100E9000AC83BD838981282F30E083E090E0821B02
:100EA000930B9C01220F331F220F331F220F331F7E
:100EB0008A819B81AC81BD8104C0880F991FAA1FC4
:100EC000BB1F2A95D2F78A839B83AC83BD832F8176
:100ED000388549855A858A819B81AC81BD81820F85
:100EE000931FA41FB51F8F839887A987BA8789810D
:100EF0008F5F89838981843008F4C0CF8F81988582
:100F0000A985BA85BC01CD012A960FB6F894DEBF3B
:100F10000FBECDBFCF91DF910895DF93CF9300D067
:100F200000D0CDB7DEB789836A838981843090F59C
:100F30008981282F30E03C832B838B819C818130F9
:100F40009105D1F02B813C81223031052CF48B812D
:100F50009C81009761F01EC02B813C8122303105BD
:100F600081F08B819C818330910581F013C0EAE38D
:100F7000F0E08A8180830EC0E7E3F0E08A8180831D
:100F800009C0E4E3F0E08A81808304C0E1E3F0E09B
:100F90008A8180830F900F900F900F90CF91DF91F7
:100FA0000895DF93CF9300D000D0CDB7DEB789830B
:100FB0006A838981843090F58981282F30E03C83D1
:100FC0002B838B819C8181309105D1F02B813C81D9
:100FD000223031052CF48B819C81009761F01EC07A
:100FE0002B813C812230310581F08B819C818330C3
:100FF000910581F013C0EBE3F0E08A8180830EC09D
:10100000E8E3F0E08A81808309C0E5E3F0E08A81CB
:10101000808304C0E2E3F0E08A8180830F900F9028
:101020000F900F90CF91DF910895DF93CF93CDB7BD
:10103000DEB72D970FB6F894DEBF0FBECDBF898304
:101040006A834B838981882309F009C18A818830AA
:1010500008F005C18B81823008F001C18981282FF9
:1010600030E03D872C878C859D858130910509F482
:101070004FC02C853D85223031052CF48C859D8513
:10108000009771F0ECC02C853D852230310509F4C4
:1010900077C08C859D858330910509F4A9C0DFC098
:1010A0008B81282F30E03B872A878A859B85009794
:1010B00031F02A853B8521303105B1F0D0C0AAE35B
:1010C000B0E0EAE3F0E08081482F8A81282F30E009
:1010D00081E090E0022E02C0880F991F0A94E2F787
:1010E000809584238C93BBC0AAE3B0E0EAE3F0E0F0
:1010F0008081482F8A81282F30E081E090E0022E05
:1011000002C0880F991F0A94E2F7842B8C93A7C022
:101110008B81282F30E0398728878885998500972B
:1011200031F02885398521303105B1F098C0A7E329
:10113000B0E0E7E3F0E08081482F8A81282F30E09B
:1011400081E090E0022E02C0880F991F0A94E2F716
:10115000809584238C9383C0A7E3B0E0E7E3F0E0BD
:101160008081482F8A81282F30E081E090E0022E94
:1011700002C0880F991F0A94E2F7842B8C936FC0EA
:101180008B81282F30E03F832E838E819F810097B3
:1011900031F02E813F8121303105B1F060C0A4E3F0
:1011A000B0E0E4E3F0E08081482F8A81282F30E02E
:1011B00081E090E0022E02C0880F991F0A94E2F7A6
:1011C000809584238C934BC0A4E3B0E0E4E3F0E08B
:1011D0008081482F8A81282F30E081E090E0022E24
:1011E00002C0880F991F0A94E2F7842B8C9337C0B2
:1011F0008B81282F30E03D832C838C819D8100974B
:1012000031F02C813D8121303105B1F028C0A1E3BE
:10121000B0E0E1E3F0E08081482F8A81282F30E0C0
:1012200081E090E0022E02C0880F991F0A94E2F735
:10123000809584238C9313C0A1E3B0E0E1E3F0E058
:101240008081482F8A81282F30E081E090E0022EB3
:1012500002C0880F991F0A94E2F7842B8C932D9675
:101260000FB6F894DEBF0FBECDBFCF91DF910895CA
:10127000DF93CF93CDB7DEB72D970FB6F894DEBFCF
:101280000FBECDBF89836A834B838981843008F088
:1012900009C18A81883008F005C18B81823008F04D
:1012A00001C18981282F30E03D872C878C859D8561
:1012B0008130910509F44FC02C853D8522303105E0
:1012C0002CF48C859D85009771F0ECC02C853D85B4
:1012D0002230310509F477C08C859D8583309105D6
:1012E00009F4A9C0DFC08B81282F30E03B872A8713
:1012F0008A859B85009731F02A853B852130310511
:10130000B1F0D0C0ABE3B0E0EBE3F0E08081482F78
:101310008A81282F30E081E090E0022E02C0880F01
:10132000991F0A94E2F7809584238C93BBC0ABE3AA
:10133000B0E0EBE3F0E08081482F8A81282F30E095
:1013400081E090E0022E02C0880F991F0A94E2F714
:10135000842B8C93A7C08B81282F30E03987288776
:1013600088859985009731F02885398521303105A8
:10137000B1F098C0A8E3B0E0E8E3F0E08081482F46
:101380008A81282F30E081E090E0022E02C0880F91
:10139000991F0A94E2F7809584238C9383C0A8E375
:1013A000B0E0E8E3F0E08081482F8A81282F30E028
:1013B00081E090E0022E02C0880F991F0A94E2F7A4
:1013C000842B8C936FC08B81282F30E03F832E833A
:1013D0008E819F81009731F02E813F812130310530
:1013E000B1F060C0A5E3B0E0E5E3F0E08081482F14
:1013F0008A81282F30E081E090E0022E02C0880F21
:10140000991F0A94E2F7809584238C934BC0A5E33F
:10141000B0E0E5E3F0E08081482F8A81282F30E0BA
:1014200081E090E0022E02C0880F991F0A94E2F733
:10143000842B8C9337C08B81282F30E03D832C8305
:101440008C819D81009731F02C813D8121303105C7
:10145000B1F028C0A2E3B0E0E2E3F0E08081482FE1
:101460008A81282F30E081E090E0022E02C0880FB0
:10147000991F0A94E2F7809584238C9313C0A2E30A
:10148000B0E0E2E3F0E08081482F8A81282F30E04D
:1014900081E090E0022E02C0880F991F0A94E2F7C3
:1014A000842B8C932D960FB6F894DEBF0FBECDBF64
:1014B000CF91DF910895DF93CF9300D000D00F92AA
:1014C000CDB7DEB78A836B8386E089838A818430D7
:1014D00008F06BC08B81883008F067C08A81282FA4
:1014E00030E03D832C834C815D814130510541F1D9
:1014F0008C819D818230910534F42C813D812115B0
:10150000310561F052C04C815D814230510551F18D
:101510008C819D8183309105B9F147C0E9E3F0E00A
:101520008081282F30E08B81882F90E0A90102C0B4
:10153000559547958A95E2F7CA018170898335C030
:10154000E6E3F0E08081282F30E08B81882F90E067
:10155000A90102C0559547958A95E2F7CA018170A5
:10156000898323C0E3E3F0E08081282F30E08B8182
:10157000882F90E0A90102C0559547958A95E2F71A
:10158000CA018170898311C0E0E3F0E08081282FD7
:1015900030E08B81882F90E0A90102C055954795D6
:1015A0008A95E2F7CA018170898389810F900F9033
:1015B0000F900F900F90CF91DF910895DF93CF930D
:1015C000CDB7DEB76D970FB6F894DEBF0FBECDBFB7
:1015D0008D8F80E06D8D0E94D10781E061E040E059
:1015E0000E94380981E060E040E00E94380981E013
:1015F00062E041E00E94380980E090E0A0E8BFE3AB
:10160000898F9A8FAB8FBC8F698D7A8D8B8D9C8DD6
:1016100020E030E04AEF54E40E941F02DC01CB01DD
:101620008D8B9E8BAF8BB88F6D897E898F89988DBE
:1016300020E030E040E85FE30E94790388232CF447
:1016400081E090E09C8B8B8B3FC06D897E898F8978
:10165000988D20E03FEF4FE757E40E9419031816DA
:101660004CF5698D7A8D8B8D9C8D20E030E040E2C9
:1016700051E40E941F02DC01CB01BC01CD010E949C
:101680004900DC01CB019C8B8B8B0FC088EC90E078
:101690009A8B898B89899A890197F1F79A8B898B23
:1016A0008B899C8901979C8B8B8B8B899C8900975C
:1016B00069F714C06D897E898F89988D0E944900D1
:1016C000DC01CB019C8B8B8B8B899C89988B8F87C2
:1016D0008F8598890197F1F7988B8F8781E062E079
:1016E00040E00E94380980E090E0A0E8BFE38B87EB
:1016F0009C87AD87BE876B857C858D859E8520E028
:1017000030E04AEF54E40E941F02DC01CB018F83DA
:101710009887A987BA876F81788589859A8520E01F
:1017200030E040E85FE30E94790388232CF481E0F5
:1017300090E09E838D833FC06F81788589859A85EF
:1017400020E03FEF4FE757E40E94190318164CF5CD
:101750006B857C858D859E8520E030E040E251E4FC
:101760000E941F02DC01CB01BC01CD010E94490097
:10177000DC01CB019E838D830FC088EC90E09C83BD
:101780008B838B819C810197F1F79C838B838D8167
:101790009E8101979E838D838D819E81009769F73D
:1017A00014C06F81788589859A850E944900DC0183
:1017B000CB019E838D838D819E819A8389838981CC
:1017C0009A810197F1F79A8389836D960FB6F89401
:1017D000DEBF0FBECDBFCF91DF910895DF93CF93D2
:1017E000CDB7DEB7AB970FB6F894DEBF0FBECDBF57
:1017F0008BA780E06BA50E94D10781E061E040E00B
:101800000E94380981E062E041E00E94380980E0EE
:1018100090E0A0E8BFE38FA398A7A9A7BAA76FA1FC
:1018200078A589A59AA520E030E04AEF54E40E940B
:101830001F02DC01CB018BA39CA3ADA3BEA36BA1B4
:101840007CA18DA19EA120E030E040E85FE30E94F2
:10185000790388232CF481E090E09AA389A33FC008
:101860006BA17CA18DA19EA120E03FEF4FE757E443
:101870000E94190318164CF56FA178A589A59AA5A1
:1018800020E030E040E251E40E941F02DC01CB0185
:10189000BC01CD010E944900DC01CB019AA389A3C0
:1018A0000FC088EC90E098A38F8F8F8D98A101973F
:1018B000F1F798A38F8F89A19AA101979AA389A381
:1018C00089A19AA1009769F714C06BA17CA18DA191
:1018D0009EA10E944900DC01CB019AA389A389A1A2
:1018E0009AA19E8F8D8F8D8D9E8D0197F1F79E8F82
:1018F0008D8F81E060E041E00E94380980E090E057
:10190000A0E8BFE3898F9A8FAB8FBC8F698D7A8DEA
:101910008B8D9C8D20E030E04AEF54E40E941F0242
:10192000DC01CB018D8B9E8BAF8BB88F6D897E894F
:101930008F89988D20E030E040E85FE30E947903D2
:1019400088232CF481E090E09C8B8B8B3FC06D89C9
:101950007E898F89988D20E03FEF4FE757E40E9402
:10196000190318164CF5698D7A8D8B8D9C8D20E0AE
:1019700030E040E251E40E941F02DC01CB01BC01D7
:10198000CD010E944900DC01CB019C8B8B8B0FC0E9
:1019900088EC90E09A8B898B89899A890197F1F775
:1019A0009A8B898B8B899C8901979C8B8B8B8B89DC
:1019B0009C89009769F714C06D897E898F89988DFD
:1019C0000E944900DC01CB019C8B8B8B8B899C890D
:1019D000988B8F878F8598890197F1F7988B8F87E0
:1019E00081E062E040E00E94380980E090E0A0E8F9
:1019F000BFE38B879C87AD87BE876B857C858D8594
:101A00009E8520E030E04AEF54E40E941F02DC0192
:101A1000CB018F839887A987BA876F81788589855D
:101A20009A8520E030E040E85FE30E947903882354
:101A30002CF481E090E09E838D833FC06F81788598
:101A400089859A8520E03FEF4FE757E40E9419030C
:101A500018164CF56B857C858D859E8520E030E0E1
:101A600040E251E40E941F02DC01CB01BC01CD0128
:101A70000E944900DC01CB019E838D830FC088EC5E
:101A800090E09C838B838B819C810197F1F79C83F1
:101A90008B838D819E8101979E838D838D819E8115
:101AA000009769F714C06F81788589859A850E94AF
:101AB0004900DC01CB019E838D838D819E819A83B9
:101AC000898389819A810197F1F79A838983AB96FB
:101AD0000FB6F894DEBF0FBECDBFCF91DF91089552
:101AE000DF93CF93CDB7DEB7E8970FB6F894DEBF9C
:101AF0000FBECDBF80E06FEF0E948D0781E06FEFDA
:101B00000E948D0780E090E0A0EFB1E48DAB9EAB2A
:101B1000AFABB8AF6DA97EA98FA998AD20E030E03A
:101B20004AEF54E40E941F02DC01CB0189AB9AAB5F
:101B3000ABABBCAB69A97AA98BA99CA920E030E02A
:101B400040E85FE30E94790388232CF481E090E071
:101B500098AB8FA73FC069A97AA98BA99CA920E05F
:101B60003FEF4FE757E40E94190318164CF56DA993
:101B70007EA98FA998AD20E030E040E251E40E94B8
:101B80001F02DC01CB01BC01CD010E944900DC0138
:101B9000CB0198AB8FA70FC088EC90E09EA78DA7D4
:101BA0008DA59EA50197F1F79EA78DA78FA598A952
:101BB000019798AB8FA78FA598A9009769F714C0D4
:101BC00069A97AA98BA99CA90E944900DC01CB01D3
:101BD00098AB8FA78FA598A99CA78BA78BA59CA531
:101BE0000197F1F79CA78BA78CE30E94DE0A80E0A7
:101BF00090E0A0E8BFE38FA398A7A9A7BAA76FA119
:101C000078A589A59AA520E030E04AEF54E40E9427
:101C10001F02DC01CB018BA39CA3ADA3BEA36BA1D0
:101C20007CA18DA19EA120E030E040E85FE30E940E
:101C3000790388232CF481E090E09AA389A33FC024
:101C40006BA17CA18DA19EA120E03FEF4FE757E45F
:101C50000E94190318164CF56FA178A589A59AA5BD
:101C600020E030E040E251E40E941F02DC01CB01A1
:101C7000BC01CD010E944900DC01CB019AA389A3DC
:101C80000FC088EC90E098A38F8F8F8D98A101975B
:101C9000F1F798A38F8F89A19AA101979AA389A39D
:101CA00089A19AA1009769F714C06BA17CA18DA1AD
:101CB0009EA10E944900DC01CB019AA389A389A1BE
:101CC0009AA19E8F8D8F8D8D9E8D0197F1F79E8F9E
:101CD0008D8F8CE00E94DE0A80E090E0A0E8BFE3F8
:101CE000898F9A8FAB8FBC8F698D7A8D8B8D9C8DF0
:101CF00020E030E04AEF54E40E941F02DC01CB01F7
:101D00008D8B9E8BAF8BB88F6D897E898F89988DD7
:101D100020E030E040E85FE30E94790388232CF460
:101D200081E090E09C8B8B8B3FC06D897E898F8991
:101D3000988D20E03FEF4FE757E40E9419031816F3
:101D40004CF5698D7A8D8B8D9C8D20E030E040E2E2
:101D500051E40E941F02DC01CB01BC01CD010E94B5
:101D60004900DC01CB019C8B8B8B0FC088EC90E091
:101D70009A8B898B89899A890197F1F79A8B898B3C
:101D80008B899C8901979C8B8B8B8B899C89009775
:101D900069F714C06D897E898F89988D0E944900EA
:101DA000DC01CB019C8B8B8B8B899C89988B8F87DB
:101DB0008F8598890197F1F7988B8F8781E00E9432
:101DC000DE0A80E090E0A0E0B0E48B879C87AD87DE
:101DD000BE876B857C858D859E8520E030E04AEF4F
:101DE00054E40E941F02DC01CB018F839887A987EE
:101DF000BA876F81788589859A8520E030E040E850
:101E00005FE30E94790388232CF481E090E09E83B5
:101E10008D833FC06F81788589859A8520E03FEF6B
:101E20004FE757E40E94190318164CF56B857C8523
:101E30008D859E8520E030E040E251E40E941F0243
:101E4000DC01CB01BC01CD010E944900DC01CB01CA
:101E50009E838D830FC088EC90E09C838B838B8165
:101E60009C810197F1F79C838B838D819E810197E3
:101E70009E838D838D819E81009769F714C06F8149
:101E8000788589859A850E944900DC01CB019E8373
:101E90008D838D819E819A83898389819A8101971F
:101EA000F1F79A83898386E00E94DE0AE8960FB6EE
:101EB000F894DEBF0FBECDBFCF91DF910895DF93C1
:101EC000CF93CDB7DEB72E970FB6F894DEBF0FBE17
:101ED000CDBF81E00E94DE0A80E090E0A0E0B0E4A7
:101EE0008B879C87AD87BE876B857C858D859E851E
:101EF00020E030E04AEF54E40E941F02DC01CB01F5
:101F00008F839887A987BA876F81788589859A8515
:101F100020E030E040E85FE30E94790388232CF45E
:101F200081E090E09E838D833FC06F8178858985B5
:101F30009A8520E03FEF4FE757E40E9419031816F7
:101F40004CF56B857C858D859E8520E030E040E2F8
:101F500051E40E941F02DC01CB01BC01CD010E94B3
:101F60004900DC01CB019E838D830FC088EC90E09B
:101F70009C838B838B819C810197F1F79C838B835E
:101F80008D819E8101979E838D838D819E81009797
:101F900069F714C06F81788589859A850E94490008
:101FA000DC01CB019E838D838D819E819A83898301
:101FB00089819A810197F1F79A8389832E960FB6CA
:101FC000F894DEBF0FBECDBFCF91DF910895DF93B0
:101FD000CF9300D000D0CDB7DEB789836A838A81E2
:101FE000282F30E03C832B838B819C81009731F03C
:101FF0002B813C812130310531F009C08981805825
:102000000E94DE0A04C0898180540E94DE0A0F907B
:102010000F900F900F90CF91DF910895DF93CF93A2
:1020200000D000D0CDB7DEB79C838B831A82198293
:102030001AC08981803128F080E061E00E94E70FBA
:1020400019828A81282F30E08B819C81FC01E20F6C
:10205000F31F90818A818F5F8A83892F0E94EE0B04
:1020600089818F5F89838A81282F30E08B819C81D1
:10207000FC01E20FF31F80818823D9F60F900F90A7
:102080000F900F90CF91DF910895EF92FF920F93F1
:102090001F93DF93CF93CDB7DEB728970FB6F89491
:1020A000DEBF0FBECDBF6D837E838F83988781E0B7
:1020B00090E0A0E0B0E089839A83AB83BC838D81FC
:1020C0009E81AF81B8850097A105B10521F480E319
:1020D0000E94EE0B85C08D819E81AF81B885BB23A8
:1020E0000CF049C08DE20E94EE0B8D819E81AF8184
:1020F000B885B095A095909581959F4FAF4FBF4FF4
:102100008D839E83AF83B88736C089819A81AB81E6
:10211000BC812AE030E040E050E0BC01CD010E94EB
:10212000EC1C7B018C018D819E81AF81B8852AE0FA
:1021300030E040E050E0BC01CD010E942D1DDC01EB
:10214000CB018E0D9F1DA01FB11F89839A83AB8386
:10215000BC838D819E81AF81B8852AE030E040E06C
:1021600050E0BC01CD010E942D1DDA01C9018D8313
:102170009E83AF83B8878D819E81AF81B88500979C
:10218000A105B10511F623C089819A81AB81BC817B
:102190002AE030E040E050E0BC01CD010E940B1D80
:1021A000DC01CB01805D0E94EE0B89819A81AB81BD
:1021B000BC812AE030E040E050E0BC01CD010E944B
:1021C0000B1DDA01C90189839A83AB83BC838981A2
:1021D0009A81AB81BC8181309105A105B105A1F641
:1021E00028960FB6F894DEBF0FBECDBFCF91DF911A
:1021F0001F910F91FF90EF900895DF93CF9300D040
:1022000000D0CDB7DEB78A837C836B838A81882F29
:1022100090E00896880F991F880F991F880F991FC3
:102220000E94DE0A19820EC08981282F30E08B813E
:102230009C81FC01E20FF31F80810E94EE0B8981DB
:102240008F5F89838981883078F380E80E94DE0A75
:102250000F900F900F900F90CF91DF910895DF9323
:10226000CF930F92CDB7DEB789838981883018F478
:1022700089810E94EE0B0F90CF91DF910895DF933B
:10228000CF93CDB7DEB72E970FB6F894DEBF0FBE53
:10229000CDBF82E067E00E948D0782E06FEF0E9471
:1022A000D10780E090E0A0E2B1E48B879C87AD8706
:1022B000BE876B857C858D859E8520E030E04AEF6A
:1022C00054E40E941F02DC01CB018F839887A98709
:1022D000BA876F81788589859A8520E030E040E86B
:1022E0005FE30E94790388232CF481E090E09E83D1
:1022F0008D833FC06F81788589859A8520E03FEF87
:102300004FE757E40E94190318164CF56B857C853E
:102310008D859E8520E030E040E251E40E941F025E
:10232000DC01CB01BC01CD010E944900DC01CB01E5
:102330009E838D830FC088EC90E09C838B838B8180
:102340009C810197F1F79C838B838D819E810197FE
:102350009E838D838D819E81009769F714C06F8164
:10236000788589859A850E944900DC01CB019E838E
:102370008D838D819E819A83898389819A8101973A
:10238000F1F79A8389832E960FB6F894DEBF0FBEBD
:10239000CDBFCF91DF910895DF93CF93CDB7DEB757
:1023A00062970FB6F894DEBF0FBECDBF0E943F11FB
:1023B00081E0898BB5C0188AAFC082E0688940E0AF
:1023C0000E9438091F869CC08F85982F9D5F82E0F0
:1023D000692F0E945B0A882309F08FC08F85282F00
:1023E00030E08889482F50E0C901880F991F820F7B
:1023F000931F840F951FFC01E15DFE4F80818A8B46
:102400008F85982F9D5F82E0692F0E945B0A882349
:10241000B9F380E090E0A0E2B1E48B879C87AD87C0
:10242000BE876B857C858D859E8520E030E04AEFF8
:1024300054E40E941F02DC01CB018F839887A98797
:10244000BA876F81788589859A8520E030E040E8F9
:102450005FE30E94790388232CF481E090E09E835F
:102460008D833FC06F81788589859A8520E03FEF15
:102470004FE757E40E94190318164CF56B857C85CD
:102480008D859E8520E030E040E251E40E941F02ED
:10249000DC01CB01BC01CD010E944900DC01CB0174
:1024A0009E838D830FC088EC90E09C838B838B810F
:1024B0009C810197F1F79C838B838D819E8101978D
:1024C0009E838D838D819E81009769F714C06F81F3
:1024D000788589859A850E944900DC01CB019E831D
:1024E0008D838D819E819A83898389819A810197C9
:1024F000F1F79A838983198A07C08F858F5F8F8749
:102500008F85843008F460CF82E0688941E00E94C2
:10251000380988898F5F888B8889833008F44DCF8C
:102520008989882309F047CF8A8962960FB6F89483
:10253000DEBF0FBECDBFCF91DF9108950F931F93E4
:10254000DF93CF93CDB7DEB7C85CD0400FB6F89419
:10255000DEBF0FBECDBF0E94700D0E94A3050E947A
:102560003F110E94CF05FE01EA53FF4F8083FE0119
:10257000EA53FF4F8081282F30E0C953DF4F398362
:102580002883C75CD040C953DF4F88819981C75CDD
:10259000D0408434910511F40C94401BC953DF4F93
:1025A000E881F981C75CD040E534F105B4F4C95342
:1025B000DF4F28813981C75CD0402234310509F4CE
:1025C0008DC2C953DF4F88819981C75CD040833465
:1025D000910511F40C94DC1CC4CFC953DF4FE88182
:1025E000F981C75CD040ED34F10559F0C953DF4F94
:1025F00028813981C75CD0402735310509F48EC563
:10260000B0CF0E945F0F80E690E00E940E1080E045
:1026100061E00E94E70F8FE690E00E940E10FE013D
:10262000EF53FF4F80E090E0AAE7B4E4808391830A
:10263000A283B3838E0103541F4FFE01EF53FF4F5C
:10264000608171818281938120E030E04AEF54E41F
:102650000E941F02DC01CB01F80180839183A283D9
:10266000B383FE01E354FF4F6081718182819381C6
:1026700020E030E040E85FE30E947903882344F4DF
:10268000FE01E554FF4F81E090E09183808364C0B8
:10269000FE01E354FF4F608171818281938120E0CC
:1026A0003FEF4FE757E40E94190318160CF043C0A0
:1026B000FE01EF53FF4F608171818281938120E0A1
:1026C00030E040E251E40E941F02DC01CB018E01A8
:1026D00005541F4FBC01CD010E944900DC01CB0114
:1026E000F801918380831FC0FE01E754FF4F88ECFF
:1026F00090E091838083FE01E754FF4F80819181B8
:102700000197F1F7FE01E754FF4F91838083DE01CB
:10271000A554BF4FFE01E554FF4F80819181019781
:1027200011969C938E93FE01E554FF4F8081918119
:102730000097D1F627C08E0105541F4FFE01E354C8
:10274000FF4F60817181828193810E944900DC0189
:10275000CB01F80191838083DE01A954BF4FFE01B4
:10276000E554FF4F808191818D939C93FE01E95444
:10277000FF4F808191810197F1F7FE01E954FF4FEE
:10278000918380830E945F0F8FE790E00E940E107C
:1027900080E061E00E94E70F80E990E00E940E1067
:1027A0000E94CC11FE01EB53FF4F8083FE01EB53DF
:1027B000FF4F8081813331F0FE01EB53FF4F808169
:1027C000803371F7FE01EB53FF4F80810E94EE0BC7
:1027D000FE01ED54FF4F80E090E0AAEFB3E4808368
:1027E0009183A283B3838E0101551F4FFE01ED54E7
:1027F000FF4F608171818281938120E030E04AEF58
:1028000054E40E941F02DC01CB01F8018083918314
:10281000A283B383FE01E155FF4F60817181828104
:10282000938120E030E040E85FE30E947903882351
:1028300044F4FE01E355FF4F81E090E091838083F3
:1028400064C0FE01E155FF4F6081718182819381F7
:1028500020E03FEF4FE757E40E94190318160CF0F1
:1028600043C0FE01ED54FF4F6081718182819381ED
:1028700020E030E040E251E40E941F02DC01CB0185
:102880008E0103551F4FBC01CD010E944900DC01A0
:10289000CB01F801918380831FC0FE01E555FF4FF6
:1028A00088EC90E091838083FE01E555FF4F8081A5
:1028B00091810197F1F7FE01E555FF4F91838083E8
:1028C000DE01A355BF4FFE01E355FF4F808191818B
:1028D000019711969C938E93FE01E355FF4F8081E3
:1028E00091810097D1F627C08E0103551F4FFE013D
:1028F000E155FF4F60817181828193810E9449007F
:10290000DC01CB01F80191838083DE01A755BF4F25
:10291000FE01E355FF4F808191818D939C93FE01D1
:10292000E755FF4F808191810197F1F7FE01E7554F
:10293000FF4F918380830E945F0FFE01EB53FF4F97
:102940008081813341F480E50E94B80580EA90E0FF
:102950000E940E100DC0FE01EB53FF4F80818033AB
:1029600039F488E50E94B80580EB90E00E940E10D3
:10297000FE01EB55FF4F80E090E0AAEFB3E48083C7
:102980009183A283B3838E010F551F4FFE01EB5538
:10299000FF4F608171818281938120E030E04AEFB6
:1029A00054E40E941F02DC01CB01F8018083918373
:1029B000A283B383FE01EF55FF4F60817181828155
:1029C000938120E030E040E85FE30E9479038823B0
:1029D00044F4FE01E156FF4F81E090E09183808353
:1029E00064C0FE01EF55FF4F608171818281938148
:1029F00020E03FEF4FE757E40E94190318160CF050
:102A000043C0FE01EB55FF4F60817181828193814C
:102A100020E030E040E251E40E941F02DC01CB01E3
:102A20008E0101561F4FBC01CD010E944900DC01FF
:102A3000CB01F801918380831FC0FE01E356FF4F55
:102A400088EC90E091838083FE01E356FF4F808104
:102A500091810197F1F7FE01E356FF4F9183808347
:102A6000DE01A156BF4FFE01E156FF4F80819181EB
:102A7000019711969C938E93FE01E156FF4F808142
:102A800091810097D1F627C08E0101561F4FFE019C
:102A9000EF55FF4F60817181828193810E944900CF
:102AA000DC01CB01F80191838083DE01A556BF4F85
:102AB000FE01E156FF4F808191818D939C93FE0131
:102AC000E556FF4F808191810197F1F7FE01E556B0
:102AD000FF4F918380830E945F0F43CD0E945F0F61
:102AE0008EEB90E00E940E1080E061E00E94E70F04
:102AF0008CEC90E00E940E10FE01E956FF4F80E042
:102B000090E0AAE7B4E480839183A283B3838E012B
:102B10000D561F4FFE01E956FF4F60817181828182
:102B2000938120E030E04AEF54E40E941F02DC0170
:102B3000CB01F80180839183A283B383FE01ED561C
:102B4000FF4F608171818281938120E030E040E815
:102B50005FE30E947903882344F4FE01EF56FF4FA0
:102B600081E090E09183808364C0FE01ED56FF4FC9
:102B7000608171818281938120E03FEF4FE757E4CC
:102B80000E94190318160CF043C0FE01E956FF4FCE
:102B9000608171818281938120E030E040E251E4E4
:102BA0000E941F02DC01CB018E010F561F4FBC019A
:102BB000CD010E944900DC01CB01F80191838083A3
:102BC0001FC0FE01E157FF4F88EC90E091838083A6
:102BD000FE01E157FF4F808191810197F1F7FE01DE
:102BE000E157FF4F91838083DE01AF56BF4FFE0157
:102BF000EF56FF4F80819181019711969C938E93A0
:102C0000FE01EF56FF4F808191810097D1F627C0DA
:102C10008E010F561F4FFE01ED56FF4F60817181EF
:102C2000828193810E944900DC01CB01F8019183EC
:102C30008083DE01A357BF4FFE01EF56FF4F808117
:102C400091818D939C93FE01E357FF4F8081918189
:102C50000197F1F7FE01E357FF4F918380830E94B4
:102C60005F0F8FE790E00E940E1080E061E00E940D
:102C7000E70F80E990E00E940E10FE01E757FF4F3A
:102C800080E090E0AAE7B4E480839183A283B383D9
:102C90008E010B571F4FFE01E757FF4F6081718177
:102CA0008281938120E030E04AEF54E40E941F02C9
:102CB000DC01CB01F80180839183A283B383FE0101
:102CC000EB57FF4F608171818281938120E030E07A
:102CD00040E85FE30E947903882344F4FE01ED5746
:102CE000FF4F81E090E09183808364C0FE01EB5749
:102CF000FF4F608171818281938120E03FEF4FE738
:102D000057E40E94190318160CF043C0FE01E75760
:102D1000FF4F608171818281938120E030E040E249
:102D200051E40E941F02DC01CB018E010D571F4FA1
:102D3000BC01CD010E944900DC01CB01F801918367
:102D400080831FC0FE01EF57FF4F88EC90E0918316
:102D50008083FE01EF57FF4F808191810197F1F74A
:102D6000FE01EF57FF4F91838083DE01AD57BF4FC8
:102D7000FE01ED57FF4F80819181019711969C9341
:102D80008E93FE01ED57FF4F808191810097D1F620
:102D900027C08E010D571F4FFE01EB57FF4F60817B
:102DA0007181828193810E944900DC01CB01F8018D
:102DB00091838083DE01A158BF4FFE01ED57FF4F85
:102DC000808191818D939C93FE01E158FF4F80811A
:102DD00091810197F1F7FE01E158FF4F91838083C4
:102DE0000E94CC11FE01EB53FF4F8083FE01EB5399
:102DF000FF4F8081813331F0FE01EB53FF4F808123
:102E0000803371F7FE01EB53FF4F80810E94EE0B80
:102E1000FE01E558FF4F80E090E0AAEFB3E4808325
:102E20009183A283B3838E0109581F4FFE01E55899
:102E3000FF4F608171818281938120E030E04AEF11
:102E400054E40E941F02DC01CB01F80180839183CE
:102E5000A283B383FE01E958FF4F608171818281B3
:102E6000938120E030E040E85FE30E94790388230B
:102E700044F4FE01EB58FF4F81E090E091838083A2
:102E800064C0FE01E958FF4F6081718182819381A6
:102E900020E03FEF4FE757E40E94190318160CF0AB
:102EA00043C0FE01E558FF4F6081718182819381AB
:102EB00020E030E040E251E40E941F02DC01CB013F
:102EC0008E010B581F4FBC01CD010E944900DC014F
:102ED000CB01F801918380831FC0FE01ED58FF4FA5
:102EE00088EC90E091838083FE01ED58FF4F808154
:102EF00091810197F1F7FE01ED58FF4F9183808397
:102F0000DE01AB58BF4FFE01EB58FF4F808191812E
:102F1000019711969C938E93FE01EB58FF4F808191
:102F200091810097D1F627C08E010B581F4FFE01EB
:102F3000E958FF4F60817181828193810E9449002D
:102F4000DC01CB01F80191838083DE01AF58BF4FD4
:102F5000FE01EB58FF4F808191818D939C93FE0180
:102F6000EF58FF4F808191810197F1F7FE01EF58F3
:102F7000FF4F918380830E945F0FFE01EB53FF4F51
:102F80008081813341F480E50E94B80580EA90E0B9
:102F90000E940E100DC0FE01EB53FF4F8081803365
:102FA00039F488E50E94B80580EB90E00E940E108D
:102FB000FE01E359FF4F80E090E0AAEFB3E4808385
:102FC0009183A283B3838E0107591F4FFE01E359FA
:102FD000FF4F608171818281938120E030E04AEF70
:102FE00054E40E941F02DC01CB01F801808391832D
:102FF000A283B383FE01E759FF4F60817181828113
:10300000938120E030E040E85FE30E947903882369
:1030100044F4FE01E959FF4F81E090E09183808301
:1030200064C0FE01E759FF4F608171818281938105
:1030300020E03FEF4FE757E40E94190318160CF009
:1030400043C0FE01E359FF4F60817181828193810A
:1030500020E030E040E251E40E941F02DC01CB019D
:103060008E0109591F4FBC01CD010E944900DC01AE
:10307000CB01F801918380831FC0FE01EB59FF4F04
:1030800088EC90E091838083FE01EB59FF4F8081B3
:1030900091810197F1F7FE01EB59FF4F91838083F6
:1030A000DE01A959BF4FFE01E959FF4F808191818F
:1030B000019711969C938E93FE01E959FF4F8081F1
:1030C00091810097D1F627C08E0109591F4FFE014B
:1030D000E759FF4F60817181828193810E9449008D
:1030E000DC01CB01F80191838083DE01AD59BF4F34
:1030F000FE01E959FF4F808191818D939C93FE01E0
:10310000ED59FF4F808191810197F1F7FE01ED5953
:10311000FF4F918380830E945F0F23CA0E945F0F3D
:1031200085ED90E00E940E1080E061E00E94E70FC4
:103130008CEC90E00E940E10FE01E15AFF4F80E0FF
:1031400090E0AAE7B4E480839183A283B3838E01E5
:10315000055A1F4FFE01E15AFF4F60817181828144
:10316000938120E030E04AEF54E40E941F02DC012A
:10317000CB01F80180839183A283B383FE01E55ADA
:10318000FF4F608171818281938120E030E040E8CF
:103190005FE30E947903882344F4FE01E75AFF4F5E
:1031A00081E090E09183808364C0FE01E55AFF4F87
:1031B000608171818281938120E03FEF4FE757E486
:1031C0000E94190318160CF043C0FE01E15AFF4F8C
:1031D000608171818281938120E030E040E251E49E
:1031E0000E941F02DC01CB018E01075A1F4FBC0158
:1031F000CD010E944900DC01CB01F801918380835D
:103200001FC0FE01E95AFF4F88EC90E09183808354
:10321000FE01E95AFF4F808191810197F1F7FE018C
:10322000E95AFF4F91838083DE01A75ABF4FFE0109
:10323000E75AFF4F80819181019711969C938E935D
:10324000FE01E75AFF4F808191810097D1F627C098
:103250008E01075A1F4FFE01E55AFF4F60817181B1
:10326000828193810E944900DC01CB01F8019183A6
:103270008083DE01AB5ABF4FFE01E75AFF4F8081CA
:1032800091818D939C93FE01EB5AFF4F8081918138
:103290000197F1F7FE01EB5AFF4F918380830E9463
:1032A0005F0F8FE790E00E940E1080E061E00E94C7
:1032B000E70F80E990E00E940E10FE01EF5AFF4FE9
:1032C00080E090E0AAE7B4E480839183A283B38393
:1032D0008E01035B1F4FFE01EF5AFF4F608171812A
:1032E0008281938120E030E04AEF54E40E941F0283
:1032F000DC01CB01F80180839183A283B383FE01BB
:10330000E35BFF4F608171818281938120E030E037
:1033100040E85FE30E947903882344F4FE01E55B03
:10332000FF4F81E090E09183808364C0FE01E35B06
:10333000FF4F608171818281938120E03FEF4FE7F1
:1033400057E40E94190318160CF043C0FE01EF5A0F
:10335000FF4F608171818281938120E030E040E203
:1033600051E40E941F02DC01CB018E01055B1F4F5F
:10337000BC01CD010E944900DC01CB01F801918321
:1033800080831FC0FE01E75BFF4F88EC90E09183D4
:103390008083FE01E75BFF4F808191810197F1F708
:1033A000FE01E75BFF4F91838083DE01A55BBF4F8A
:1033B000FE01E55BFF4F80819181019711969C93FF
:1033C0008E93FE01E55BFF4F808191810097D1F6DE
:1033D00027C08E01055B1F4FFE01E35BFF4F60813D
:1033E0007181828193810E944900DC01CB01F80147
:1033F00091838083DE01A95BBF4FFE01E55BFF4F38
:10340000808191818D939C93FE01E95BFF4F8081C8
:1034100091810197F1F7FE01E95BFF4F9183808372
:103420000E94CC11FE01EB53FF4F8083FE01EB5352
:10343000FF4F8081813331F0FE01EB53FF4F8081DC
:10344000803371F7FE01EB53FF4F80810E94EE0B3A
:10345000FE01ED5BFF4F80E090E0AAEFB3E48083D4
:103460009183A283B3838E01015C1F4FFE01ED5B4C
:10347000FF4F608171818281938120E030E04AEFCB
:1034800054E40E941F02DC01CB01F8018083918388
:10349000A283B383FE01FF96608171818281938153
:1034A00020E030E040E85FE30E94790388232CF4B9
:1034B00081E090E09EAF8DAF46C0FE01FF96608137
:1034C00071818281938120E03FEF4FE757E40E94B2
:1034D0001903181664F5FE01ED5BFF4F60817181E1
:1034E0008281938120E030E040E251E40E941F029B
:1034F000DC01CB01BC01CD010E944900DC01CB0104
:103500009EAF8DAF0FC088EC90E09CAF8BAF8BADC2
:103510009CAD0197F1F79CAF8BAF8DAD9EAD019740
:103520009EAF8DAF8DAD9EAD009769F716C0FE01C1
:10353000FF9660817181828193810E944900DC0144
:10354000CB019EAF8DAF8DAD9EAD9AAF89AF89ADEA
:103550009AAD0197F1F79AAF89AF0E945F0FFE0114
:10356000EB53FF4F8081813341F480E50E94B80521
:1035700080EA90E00E940E100DC0FE01EB53FF4F59
:103580008081803339F488E50E94B80580EB90E0B3
:103590000E940E1080E090E0AAEFB3E48DAB9EABEA
:1035A000AFABB8AF6DA97EA98FA998AD20E030E090
:1035B0004AEF54E40E941F02DC01CB0189AB9AABB5
:1035C000ABABBCAB69A97AA98BA99CA920E030E080
:1035D00040E85FE30E94790388232CF481E090E0C7
:1035E00098AB8FA73FC069A97AA98BA99CA920E0B5
:1035F0003FEF4FE757E40E94190318164CF56DA9E9
:103600007EA98FA998AD20E030E040E251E40E940D
:103610001F02DC01CB01BC01CD010E944900DC018D
:10362000CB0198AB8FA70FC088EC90E09EA78DA729
:103630008DA59EA50197F1F79EA78DA78FA598A9A7
:10364000019798AB8FA78FA598A9009769F714C029
:1036500069A97AA98BA99CA90E944900DC01CB0128
:1036600098AB8FA78FA598A99CA78BA78BA59CA586
:103670000197F1F79CA78BA70E945F0F0C94B112E2
:103680000E945F0F84EE90E00E940E1080E061E0E7
:103690000E94E70F84EF90E00E940E1080E090E01F
:1036A000AAE7B4E48FA398A7A9A7BAA76FA178A5A2
:1036B00089A59AA520E030E04AEF54E40E941F0259
:1036C000DC01CB018BA39CA3ADA3BEA36BA17CA10A
:1036D0008DA19EA120E030E040E85FE30E947903E5
:1036E00088232CF481E090E09AA389A33FC06BA1CA
:1036F0007CA18DA19EA120E03FEF4FE757E40E94FF
:10370000190318164CF56FA178A589A59AA520E094
:1037100030E040E251E40E941F02DC01CB01BC0119
:10372000CD010E944900DC01CB019AA389A30FC0FF
:1037300088EC90E098A38F8F8F8D98A10197F1F777
:1037400098A38F8F89A19AA101979AA389A389A190
:103750009AA1009769F714C06BA17CA18DA19EA1CD
:103760000E944900DC01CB019AA389A389A19AA1F7
:103770009E8F8D8F8D8D9E8D0197F1F79E8F8D8FF2
:103780000E94CC11FE01EB53FF4F8083FE01EB53EF
:10379000FF4F8081813331F0FE01EB53FF4F808179
:1037A000803371F7FE01EB53FF4F80810E94EE0BD7
:1037B00080E090E0AAEFB3E4898F9A8FAB8FBC8F43
:1037C000698D7A8D8B8D9C8D20E030E04AEF54E43A
:1037D0000E941F02DC01CB018D8B9E8BAF8BB88FBB
:1037E0006D897E898F89988D20E030E040E85FE325
:1037F0000E94790388232CF481E090E09C8B8B8BD2
:103800003FC06D897E898F89988D20E03FEF4FE71B
:1038100057E40E94190318164CF5698D7A8D8B8D2B
:103820009C8D20E030E040E251E40E941F02DC0168
:10383000CB01BC01CD010E944900DC01CB019C8B76
:103840008B8B0FC088EC90E09A8B898B89899A8941
:103850000197F1F79A8B898B8B899C8901979C8BB7
:103860008B8B8B899C89009769F714C06D897E8941
:103870008F89988D0E944900DC01CB019C8B8B8B3A
:103880008B899C89988B8F878F8598890197F1F711
:10389000988B8F870E945F0FFE01EB53FF4F808153
:1038A000813339F481E40E94B8058EEF90E00E94E4
:1038B0000E10FE01EB53FF4F8081803339F488E511
:1038C0000E94B8058DE091E00E940E1080E090E02B
:1038D000AAEFB3E48B879C87AD87BE876B857C8519
:1038E0008D859E8520E030E04AEF54E40E941F025F
:1038F000DC01CB018F839887A987BA876F81788590
:1039000089859A8520E030E040E85FE30E947903F2
:1039100088232CF481E090E09E838D833FC06F81EB
:10392000788589859A8520E03FEF4FE757E40E942C
:10393000190318164CF56B857C858D859E8520E0D6
:1039400030E040E251E40E941F02DC01CB01BC01E7
:10395000CD010E944900DC01CB019E838D830FC005
:1039600088EC90E09C838B838B819C810197F1F79D
:103970009C838B838D819E8101979E838D838D8116
:103980009E81009769F714C06F81788589859A8533
:103990000E944900DC01CB019E838D838D819E8135
:1039A0009A83898389819A810197F1F79A83898320
:1039B0000E945F0F0C94B1120E945F0F8BE191E0A7
:1039C0000E940E1080E061E00E94E70F8FE690E019
:1039D0000E940E100C94B112629FD001739FF001EF
:1039E000829FE00DF11D649FE00DF11D929FF00D8F
:1039F000839FF00D749FF00D659FF00D9927729FC6
:103A0000B00DE11DF91F639FB00DE11DF91FBD0150
:103A1000CF0111240895A1E21A2EAA1BBB1BFD01A0
:103A20000DC0AA1FBB1FEE1FFF1FA217B307E4079D
:103A3000F50720F0A21BB30BE40BF50B661F771FF5
:103A4000881F991F1A9469F76095709580959095D5
:103A50009B01AC01BD01CF01089597FB092E0526FE
:103A60000ED057FD04D0D7DF0AD0001C38F4509593
:103A70004095309521953F4F4F4F5F4F0895F6F792
:103A800090958095709561957F4F8F4F9F4F0895CA
:103A90002F923F924F925F926F927F928F929F925E
:103AA000AF92BF92CF92DF92EF92FF920F931F934C
:103AB000CF93DF93CDB7DEB7CA1BDB0B0FB6F894FD
:103AC000DEBF0FBECDBF09942A88398848885F843D
:103AD0006E847D848C849B84AA84B984C884DF80AE
:103AE000EE80FD800C811B81AA81B981CE0FD11D92
:103AF0000FB6F894DEBF0FBECDBFED010895F89468
:023B0000FFCFF5
:103B0200416264656C7261686D616E2069730074F4
:103B12007279696E6720746F20656E7465720050E9
:103B220072657373203120746F20616C6C6F770043
:103B3200616E64203020746F2044656E793A2000F3
:103B420048652063616E2070617373206E6F770029
:103B520048652063616E2774207061737300416D44
:103B62007220697320747279696E6700746F2065C0
:103B72006E746572005761656C2069732074727986
:103B8200696E6700546F20616C6C6F7720616363AC
:103B920065737300656E74657220313A200041636B
:103BA2006365737320616C6C6F7765640041636356
:103BB2006573732064656E69656400536F6D656F2C
:103BC2006E652069732000000000000000000031D3
:0C3BD20032333435363738392A302300BE
:00000001FF
